:100000000C945D000C9485000C9485000C94850084
:100010000C9485000C9485000C9485000C9485004C
:100020000C9485000C9485000C9485000C9485003C
:100030000C9485000C9485000C9485000C9485002C
:100040000C94F9040C9485000C9469050C944305F8
:100050000C9485000C9485000C9485000C9485000C
:100060000C9485000C94850000000008000201003B
:100070000003040700000000000000000000000072
:10008000250028002B0000000000240027002A0083
:10009000040404040404040402020202020203032E
:1000A0000303030301020408102040800102040836
:1000B00010200102040810209B0511241FBECFEF61
:1000C000D8E0DEBFCDBF11E0A0E0B1E0ECEAF3E1A3
:1000D00002C005900D92A437B107D9F722E0A4E73A
:1000E000B1E001C01D92AE33B207E1F710E0CDE5FB
:1000F000D0E004C02197FE010E94C909CC35D10788
:10010000C9F70E94E5050C94D4090C94000090E016
:10011000FC01EC55FF4F2491FC01E057FF4F849107
:10012000882399F090E0880F991FFC01EA57FF4F50
:10013000A591B491FC01E458FF4F859194918FB73C
:10014000F894EC91E22BEC938FBF089590E0FC01C2
:10015000E859FF4F2491FC01EC55FF4F3491FC010D
:10016000E057FF4FE491EE2309F43CC0222339F11C
:10017000233091F038F42130A9F0223001F584B514
:100180008F7D12C0273091F02830A1F02430B9F4CF
:10019000809180008F7D03C0809180008F77809355
:1001A00080000DC084B58F7784BD09C08091B000F8
:1001B0008F7703C08091B0008F7D8093B000F0E016
:1001C000EE0FFF1FE458FF4FA591B4919FB7F8942D
:1001D000611104C08C913095382302C0EC913E2B04
:1001E0003C939FBF08953FB7F8948091850190910B
:1001F0008601A0918701B091880126B5A89B05C012
:100200002F3F19F00196A11DB11D3FBFBA2FA92F95
:10021000982F8827820F911DA11DB11DBC01CD0112
:1002200042E0660F771F881F991F4A95D1F70895FE
:100230008F929F92AF92BF92CF92DF92EF92FF92F6
:100240006B017C010E94F3004B015C01C114D104DD
:10025000E104F104F1F00E94F300DC01CB01881904
:100260009909AA09BB09883E9340A105B10570F31D
:1002700021E0C21AD108E108F10888EE880E83E077
:10028000981EA11CB11CC114D104E104F10419F79A
:10029000DDCFFF90EF90DF90CF90BF90AF909F9019
:1002A0008F900895CF92DF92EF92FF920F931F935A
:1002B000CF93DF936C017A018B01C0E0D0E0CE15C3
:1002C000DF0581F0D8016D918D01D601ED91FC9192
:1002D0000190F081E02DC6010995892B11F021963E
:1002E000EECF7E01C701DF91CF911F910F91FF905B
:1002F000EF90DF90CF900895FC01538D448D252F12
:1003000030E0842F90E0821B930B541710F0CF96AF
:10031000089501970895FC01918D828D981761F0E1
:10032000828DDF01A80FB11D5D968C91928D9F5F2C
:100330009F73928F90E008958FEF9FEF0895FC01D7
:10034000918D828D981731F0828DE80FF11D858D8A
:1003500090E008958FEF9FEF0895FC01918D228D1D
:10036000892F90E0805C9F4F821B91098F739927A2
:10037000089589E891E00E94AD0121E0892B09F4FC
:1003800020E0822F0895FC01848DDF01A80FB11DAC
:10039000A35ABF4F2C91848D90E001968F739927BB
:1003A000848FA689B7892C93A089B1898C91837099
:1003B00080648C93938D848D981306C00288F38992
:1003C000E02D80818F7D80830895EF92FF920F93BF
:1003D0001F93CF93DF93EC0181E0888F9B8D8C8DF1
:1003E000981305C0E889F989808185FD26C0F62E1D
:1003F0000B8D10E00F5F1F4F0F731127E02E8C8DB8
:10040000E8120CC00FB607FCFACFE889F9898081A1
:1004100085FFF5CFCE010E94C301F1CF8B8DFE0188
:10042000E80FF11DE35AFF4FF0829FB7F8940B8F4E
:10043000EA89FB89808180620AC09FB7F894EE89BF
:10044000FF896083E889F989808183708064808373
:100450009FBF81E090E0DF91CF911F910F91FF90BE
:10046000EF900895CF93DF93EC01888D8823C9F036
:10047000EA89FB89808185FD05C0A889B9898C91AD
:1004800086FD0FC00FB607FCF5CF808185FFF2CF48
:10049000A889B9898C9185FFEDCFCE010E94C30157
:1004A000E7CFDF91CF91089580E090E0892B29F08C
:1004B0000E94B90181110C9400000895CF93DF933D
:1004C000EC0160E08E810E94A60061E08E810E94B6
:1004D000A60060E08E810E94A6008BE891E0019763
:1004E000F1F7DF91CF910895CF92DF92EF92FF92D3
:1004F0000F931F93CF93DF936C017C0187E0E80E8D
:10050000F11CC0E0D0E0062F10E0B8010C2E02C0B4
:10051000759567950A94E2F76170F70181917F0103
:100520000E94A6002196C430D10579F7C601DF915B
:10053000CF911F910F91FF90EF90DF90CF900C948F
:100540005E02CF92DF92EF92FF920F931F93CF93B1
:10055000DF93EC01F62E642F8C810E94A6008D8122
:100560008F3F19F060E00E94A6008F850F2D10E0EC
:1005700084FF25C06E0187E0C80ED11CE12CF12C50
:10058000B8010E2C02C0759567950A94E2F7617068
:10059000F60181916F010E94A600FFEFEF1AFF0A9A
:1005A00088E0E816F10461F7CE01DF91CF911F9149
:1005B0000F91FF90EF90DF90CF900C945E02B80106
:1005C00084E0759567958A95E1F7CE010E947402E3
:1005D0006F2DCE01DF91CF911F910F91FF90EF9082
:1005E000DF90CF900C94740240E0682F86E292E096
:1005F0000C94A102CF93DF93823028F090913502C2
:100600009860909335028093390210923A0280E408
:1006100080933B0280E180933C0280E580933D0221
:1006200080912A020E94870080912B028F3F11F057
:100630000E94870080912C020E948700C6E2D2E0CF
:100640009E01265232408091350284FD03C084E031
:1006500090E002C088E090E021962817390724F442
:100660008E810E948700ECCF8BE39DE00197F1F72C
:1006700060E080912A020E94A60060E080912C0236
:100680000E94A60080912B028F3F19F060E00E942B
:10069000A6008091350284FD20C063E086E292E0EE
:1006A0000E947402CBE4D6E4CE010197F1F763E037
:1006B00086E292E00E9474022197F1F763E086E2FD
:1006C00092E00E94740283E592E00197F1F762E004
:1006D00086E292E00E94740215C080620E94F402D9
:1006E0008BE496E40197F1F78091350280620E94D5
:1006F000F40283E592E00197F1F780913502806280
:100700000E94F4028091350280620E94F40284E02B
:10071000809336028CE00E94F40281E00E94F40291
:100720008BE39FE10197F1F782E08093370286E047
:10073000DF91CF910C94F402643008F063E0909163
:100740003902691710F06FEF690FE62FF0E0EA5DEC
:10075000FD4F9489890F80680C94F40241E00E9457
:10076000A10281E090E00895089580E090E008956E
:100770000E94CF096115710579F0FB0101900020FD
:10078000E9F73197AF01461B570BDC01ED91FC9166
:100790000280F381E02D099480E090E008952F928B
:1007A0003F924F925F926F927F928F929F92AF9201
:1007B000BF92CF92DF92EF92FF920F931F93CF934E
:1007C000DF93CDB7DEB7A2970FB6F894DEBF0FBEAA
:1007D000CDBF8C014A015B01D22E9A01AB01C5014C
:1007E000B4010E94A209882319F06EE171E027C0CC
:1007F00024013501E89477F82FEF3FEF4FE75FE7EB
:10080000C301B2010E94A20981110DC02FEF3FEF79
:100810004FE75FE7C301B2010E94D80718161CF426
:1008200062E271E00CC02FEF3FEF4FE75FE4C501DC
:10083000B4010E943009181634F466E271E0C80170
:100840000E94BA03BDC02FEF3FEF4FE75FECC50139
:10085000B4010E94D80787FDF0CF20E030E0A90165
:10086000C501B4010E94D80787FF0FC0D801ED91E0
:10087000FC910190F081E02D6DE2C80109951C0109
:10088000B7FAB094B7F8B09402C0212C312CF12CF7
:1008900060E070E080E09FE3DF1441F020E030E0B2
:1008A00040E251E40E94DD07F394F6CFA5019401E4
:1008B0000E946C074B015C010E944F08562E672E68
:1008C000782EC92E19A2262F372F482F592F7E0197
:1008D000B1E2EB0EF11CEAA24F2CCA01B9012AE0E9
:1008E00030E040E050E00E94A709605DF7016293AC
:1008F0007F01211531054105510579F7BF01C80177
:100900000E94BA037101E80EF91EDD2009F457C0F8
:10091000652D762D872D9C2D0E947E089B01AC01B4
:10092000C501B4010E946B074B015C01D801ED9138
:10093000FC910190F081E02D6EE2C8010995E80E6E
:10094000F91E20E030E040E251E4C501B4010E940C
:1009500035094B015C010E944F089B0140E050E0CB
:1009600019A22AA0342C562E632E742EC52ECA012D
:10097000B9012AE030E040E050E00E94A709605D44
:10098000F10162931F01211531054105510579F7E8
:10099000BF01C8010E94BA03E80EF91E652D762D2D
:1009A000872D9C2D0E947E089B01AC01C501B401DE
:1009B0000E946B074B015C01DA94D110C2CFC701D2
:1009C000A2960FB6F894DEBF0FBECDBFDF91CF91D8
:1009D0001F910F91FF90EF90DF90CF90BF90AF905D
:1009E0009F908F907F906F905F904F903F902F904F
:1009F00008951F920F920FB60F9211242F933F93D9
:100A00008F939F93AF93BF938091810190918201C7
:100A1000A0918301B09184013091800123E0230FE4
:100A20002D3720F40196A11DB11D05C026E8230F26
:100A30000296A11DB11D20938001809381019093A6
:100A40008201A0938301B0938401809185019091EC
:100A50008601A0918701B09188010196A11DB11D69
:100A60008093850190938601A0938701B0938801BC
:100A7000BF91AF919F918F913F912F910F900FBE9A
:100A80000F901F9018951F920F920FB60F9211247E
:100A90002F933F934F935F936F937F938F939F9386
:100AA000AF93BF93EF93FF9389E891E00E94C30156
:100AB000FF91EF91BF91AF919F918F917F916F9136
:100AC0005F914F913F912F910F900FBE0F901F900C
:100AD00018951F920F920FB60F9211242F938F9398
:100AE0009F93EF93FF93E0919901F0919A01808198
:100AF000E0919F01F091A00182FD12C09081809150
:100B0000A2018F5F8F732091A301821751F0E091B2
:100B1000A201F0E0E757FE4F958F8093A20101C03C
:100B20008081FF91EF919F918F912F910F900FBE38
:100B30000F901F901895E9E8F1E01382128288EE79
:100B400093E0A0E0B0E084839583A683B78384E03C
:100B500091E09183808385EC90E09587848784EC95
:100B600090E09787868780EC90E0918B808B81EC7A
:100B700090E0938B828B82EC90E0958B848B86EC5B
:100B800090E0978B868B118E128E138E148EE6E278
:100B9000F2E01382128286E191E0918380838CE0FF
:100BA00084838FEF85838BE0868385E0878384E071
:100BB000808783E0818782E082871386148615868A
:100BC0001686178681E00C94FA02789484B58260C8
:100BD00084BD84B5816084BD85B5826085BD85B5E1
:100BE000816085BD80916E00816080936E0010925F
:100BF00081008091810082608093810080918100DA
:100C0000816080938100809180008160809380006A
:100C10008091B10084608093B1008091B0008160C8
:100C20008093B00080917A00846080937A008091F4
:100C30007A00826080937A0080917A00816080934C
:100C40007A0080917A00806880937A001092C100C7
:100C500082E00E94FA026AE271E086E292E00E947B
:100C6000BA0361E080E00E949C0362E371E086E2E7
:100C700092E00E94BA0364EC79E080E090E00E9488
:100C8000180181E00E94F4028BE39FE10197F1F7E4
:100C900060E080E00E949C03E0919901F0919A014C
:100CA00082E08083E0919501F09196011082E091BD
:100CB0009701F09198018FEC80831092A101E0914F
:100CC0009D01F0919E0186E08083E0919B01F0916F
:100CD0009C01808180618083E0919B01F0919C0167
:100CE000808188608083E0919B01F0919C018081EC
:100CF00080688083E0919B01F0919C0180818F7DD1
:100D00008083C1E4C0937C0080917A0080648093EA
:100D10007A0080917A0086FDFCCF60917800809106
:100D2000790070E0782B072E000C880B990B0E943D
:100D3000800823E030E040EA5BE30E9435096B0164
:100D40007C0160937C0170937D0180937E01909380
:100D50007F012DEC3CEC4CEC5EE30E94D8071816AA
:100D60004CF0109278011092790110927A01109251
:100D70007B0122C02DEC3CEC4CEC5EE3C701B601DC
:100D80000E946B0720E030E040E052E40E94350909
:100D90002DEC3CEC4CEC5FE30E94DD0726E03AE2F0
:100DA0004FE050E40E943509609378017093790117
:100DB00080937A0190937B01C0907801D090790163
:100DC000E0907A01F0907B012091740130917501DF
:100DD0004091760150917701C701B6010E94300918
:100DE00087FD08C0C0927401D0927501E09276012F
:100DF000F092770163E471E089E891E00E94BA0320
:100E000040917C0150917D0160917E0170917F0144
:100E100022E089E891E00E94CF036DE471E089E867
:100E200091E00E94BA036FE471E089E891E00E94CA
:100E3000BA03409178015091790160917A017091E3
:100E40007B0122E089E891E00E94CF036CE571E02C
:100E500089E891E00E94BA0360E080E00E949C0370
:100E60006FE571E086E292E00E94BA0361E080E003
:100E70000E949C03409178015091790160917A0120
:100E800070917B0122E086E292E00E94CF0361E054
:100E900087E00E949C036EE671E086E292E00E9489
:100EA000BA0361E08BE00E949C0340917401509171
:100EB0007501609176017091770122E086E292E0FF
:100EC0000E94CF0360ED77E080E090E00E9418017F
:100ED0000E94540217CF5058BB27AA270E948307AD
:100EE0000C94F6080E94E80838F00E94EF0820F001
:100EF00039F49F3F19F426F40C94E5080EF4E095BC
:100F0000E7FB0C94DF08E92F0E94070958F3BA1792
:100F1000620773078407950720F079F4A6F50C940F
:100F200029090EF4E0950B2EBA2FA02D0B01B90163
:100F300090010C01CA01A0011124FF27591B99F04F
:100F4000593F50F4503E68F11A16F040A22F232F5B
:100F5000342F4427585FF3CF469537952795A795AB
:100F6000F0405395C9F77EF41F16BA0B620B730B52
:100F7000840BBAF09150A1F0FF0FBB1F661F771FC3
:100F8000881FC2F70EC0BA0F621F731F841F48F478
:100F9000879577956795B795F7959E3F08F0B0CF01
:100FA0009395880F08F09927EE0F979587950895E8
:100FB0000E94BB0808F481E008950E94F1070C9498
:100FC000F6080E94EF0858F00E94E80840F029F463
:100FD0005F3F29F00C94DF0851110C942A090C94FE
:100FE000E5080E94070968F39923B1F3552391F3AB
:100FF000951B550BBB27AA2762177307840738F088
:101000009F5F5F4F220F331F441FAA1FA9F335D0E4
:101010000E2E3AF0E0E832D091505040E695001C98
:10102000CAF72BD0FE2F29D0660F771F881FBB1F52
:10103000261737074807AB07B0E809F0BB0B802D30
:10104000BF01FF2793585F4F3AF09E3F510578F05C
:101050000C94DF080C942A095F3FE4F3983ED4F324
:10106000869577956795B795F7959F5FC9F7880F30
:10107000911D9695879597F90895E1E0660F771F82
:10108000881FBB1F621773078407BA0720F0621B13
:10109000730B840BBA0BEE1F88F7E09508950E943E
:1010A0000F0988F09F5798F0B92F9927B751B0F0E2
:1010B000E1F0660F771F881F991F1AF0BA95C9F7DC
:1010C00014C0B13091F00E942909B1E008950C9448
:1010D0002909672F782F8827B85F39F0B93FCCF3FB
:1010E000869577956795B395D9F73EF49095809559
:1010F000709561957F4F8F4F9F4F0895E89409C079
:1011000097FB3EF490958095709561957F4F8F4F3A
:101110009F4F9923A9F0F92F96E9BB279395F69550
:10112000879577956795B795F111F8CFFAF4BB0FCE
:1011300011F460FF1BC06F5F7F4F8F4F9F4F16C032
:10114000882311F096E911C0772321F09EE8872FBC
:10115000762F05C0662371F096E8862F70E060E078
:101160002AF09A95660F771F881FDAF7880F9695F1
:10117000879597F90895990F0008550FAA0BE0E895
:10118000FEEF16161706E807F907C0F01216130649
:10119000E407F50798F0621B730B840B950B39F489
:1011A0000A2661F0232B242B252B21F408950A26EF
:1011B00009F4A140A6958FEF811D811D089597F92F
:1011C0009F6780E870E060E008959FEF80EC0895ED
:1011D00000240A9416161706180609060895002416
:1011E0000A9412161306140605060895092E039490
:1011F000000C11F4882352F0BB0F40F4BF2B11F404
:1012000060FF04C06F5F7F4F8F4F9F4F089557FD62
:101210009058440F551F59F05F3F71F04795880F64
:1012200097FB991F61F09F3F79F0879508951216FB
:1012300013061406551FF2CF4695F1DF08C01616A7
:1012400017061806991FF1CF869571056105089458
:101250000895E894BB2766277727CB0197F908956F
:101260000E94BB0808F48FEF08950E9448090C946F
:10127000F6080E94E80838F00E94EF0820F0952355
:1012800011F00C94DF080C94E50811240C942A0941
:101290000E94070970F3959FC1F3950F50E0551F09
:1012A000629FF001729FBB27F00DB11D639FAA27BB
:1012B000F00DB11DAA1F649F6627B00DA11D661F0A
:1012C000829F2227B00DA11D621F739FB00DA11D2B
:1012D000621F839FA00D611D221F749F3327A00DE5
:1012E000611D231F849F600D211D822F762F6A2F81
:1012F00011249F5750409AF0F1F088234AF0EE0FE6
:10130000FF1FBB1F661F771F881F91505040A9F712
:101310009E3F510580F00C94DF080C942A095F3F32
:10132000E4F3983ED4F3869577956795B795F7954E
:10133000E7959F5FC1F7FE2B880F911D96958795C6
:1013400097F908950E94BB08880B990B0895A1E2B4
:101350001A2EAA1BBB1BFD010DC0AA1FBB1FEE1F2F
:10136000FF1FA217B307E407F50720F0A21BB30B7A
:10137000E40BF50B661F771F881F991F1A9469F7F6
:1013800060957095809590959B01AC01BD01CF0152
:101390000895EE0FFF1F0590F491E02D099481E070
:0C13A00090E0F8940C94D409F894FFCF6E
:1013AC0000000000E50152017C013202AD018B010D
:1013BC009F0100000000AE035201B503B4036E613F
:1013CC006E00696E66006F76660047726F757020EE
:1013DC00340057696E6473706565642053656E7371
:1013EC006F7200566F6C746167653A200009005784
:1013FC00696E642073706565643A20000D0A0057AD
:10140C00696E64205370656564206D7068004D6171
:04141C00783D000017
:00000001FF
